{
  "contractName": "FileContract",
  "abi": [
    {
      "anonymous": false,
      "inputs": [
        {
          "indexed": true,
          "internalType": "address",
          "name": "_owner",
          "type": "address"
        },
        {
          "indexed": true,
          "internalType": "address",
          "name": "_receiver",
          "type": "address"
        },
        {
          "indexed": false,
          "internalType": "string",
          "name": "_ipfsHash",
          "type": "string"
        },
        {
          "indexed": false,
          "internalType": "string",
          "name": "_name",
          "type": "string"
        },
        {
          "indexed": false,
          "internalType": "uint256",
          "name": "_uploadedOn",
          "type": "uint256"
        }
      ],
      "name": "LogFileShared",
      "type": "event"
    },
    {
      "anonymous": false,
      "inputs": [
        {
          "indexed": true,
          "internalType": "address",
          "name": "_owner",
          "type": "address"
        },
        {
          "indexed": false,
          "internalType": "string",
          "name": "_ipfsHash",
          "type": "string"
        },
        {
          "indexed": false,
          "internalType": "string",
          "name": "_name",
          "type": "string"
        },
        {
          "indexed": false,
          "internalType": "uint256",
          "name": "_uploadedOn",
          "type": "uint256"
        }
      ],
      "name": "LogFileUploaded",
      "type": "event"
    },
    {
      "inputs": [
        {
          "internalType": "address",
          "name": "",
          "type": "address"
        },
        {
          "internalType": "uint256",
          "name": "",
          "type": "uint256"
        }
      ],
      "name": "ownerToFiles",
      "outputs": [
        {
          "internalType": "string",
          "name": "ipfsHash",
          "type": "string"
        },
        {
          "internalType": "string",
          "name": "name",
          "type": "string"
        },
        {
          "internalType": "uint256",
          "name": "uploadedOn",
          "type": "uint256"
        }
      ],
      "stateMutability": "view",
      "type": "function",
      "constant": true
    },
    {
      "inputs": [
        {
          "internalType": "address",
          "name": "",
          "type": "address"
        },
        {
          "internalType": "uint256",
          "name": "",
          "type": "uint256"
        }
      ],
      "name": "sharedToFiles",
      "outputs": [
        {
          "internalType": "string",
          "name": "ipfsHash",
          "type": "string"
        },
        {
          "internalType": "string",
          "name": "name",
          "type": "string"
        },
        {
          "internalType": "uint256",
          "name": "uploadedOn",
          "type": "uint256"
        }
      ],
      "stateMutability": "view",
      "type": "function",
      "constant": true
    },
    {
      "inputs": [
        {
          "internalType": "string",
          "name": "_ipfsHash",
          "type": "string"
        },
        {
          "internalType": "string",
          "name": "_name",
          "type": "string"
        }
      ],
      "name": "uploadFile",
      "outputs": [
        {
          "internalType": "bool",
          "name": "_success",
          "type": "bool"
        }
      ],
      "stateMutability": "nonpayable",
      "type": "function"
    },
    {
      "inputs": [
        {
          "internalType": "address",
          "name": "_owner",
          "type": "address"
        }
      ],
      "name": "getFileCount",
      "outputs": [
        {
          "internalType": "uint256",
          "name": "",
          "type": "uint256"
        }
      ],
      "stateMutability": "view",
      "type": "function",
      "constant": true
    },
    {
      "inputs": [
        {
          "internalType": "address",
          "name": "_owner",
          "type": "address"
        },
        {
          "internalType": "uint8",
          "name": "_index",
          "type": "uint8"
        }
      ],
      "name": "getFile",
      "outputs": [
        {
          "internalType": "string",
          "name": "_ipfsHash",
          "type": "string"
        },
        {
          "internalType": "string",
          "name": "_name",
          "type": "string"
        },
        {
          "internalType": "uint256",
          "name": "_uploadedOn",
          "type": "uint256"
        }
      ],
      "stateMutability": "view",
      "type": "function",
      "constant": true
    },
    {
      "inputs": [
        {
          "internalType": "address",
          "name": "_receiver",
          "type": "address"
        },
        {
          "internalType": "uint8",
          "name": "_index",
          "type": "uint8"
        }
      ],
      "name": "shareFile",
      "outputs": [
        {
          "internalType": "bool",
          "name": "_success",
          "type": "bool"
        }
      ],
      "stateMutability": "nonpayable",
      "type": "function"
    },
    {
      "inputs": [
        {
          "internalType": "address",
          "name": "_receiver",
          "type": "address"
        }
      ],
      "name": "getSharedFileCount",
      "outputs": [
        {
          "internalType": "uint256",
          "name": "",
          "type": "uint256"
        }
      ],
      "stateMutability": "view",
      "type": "function",
      "constant": true
    },
    {
      "inputs": [
        {
          "internalType": "address",
          "name": "_receiver",
          "type": "address"
        },
        {
          "internalType": "uint8",
          "name": "_index",
          "type": "uint8"
        }
      ],
      "name": "getSharedFile",
      "outputs": [
        {
          "internalType": "string",
          "name": "_ipfsHash",
          "type": "string"
        },
        {
          "internalType": "string",
          "name": "_name",
          "type": "string"
        },
        {
          "internalType": "uint256",
          "name": "_uploadedOn",
          "type": "uint256"
        }
      ],
      "stateMutability": "view",
      "type": "function",
      "constant": true
    }
  ],
  "bytecode": "0x608060405234801561001057600080fd5b5061150e806100206000396000f3fe608060405234801561001057600080fd5b50600436106100885760003560e01c8063a0d990b21161005b578063a0d990b214610151578063bc0fc38b14610181578063fa001d7b146101b3578063fe5415cd146101e357610088565b8063265159bb1461008d5780634d79c78f146100bf57806377a0659d146100ef578063996d50bf14610121575b600080fd5b6100a760048036038101906100a29190611077565b610215565b6040516100b69392919061115f565b60405180910390f35b6100d960048036038101906100d491906111dd565b61036c565b6040516100e69190611238565b60405180910390f35b610109600480360381019061010491906111dd565b6106e3565b6040516101189392919061115f565b60405180910390f35b61013b60048036038101906101369190611388565b610928565b6040516101489190611238565b60405180910390f35b61016b60048036038101906101669190611400565b610a85565b604051610178919061142d565b60405180910390f35b61019b60048036038101906101969190611077565b610b0a565b6040516101aa9392919061115f565b60405180910390f35b6101cd60048036038101906101c89190611400565b610c61565b6040516101da919061142d565b60405180910390f35b6101fd60048036038101906101f891906111dd565b610ce5565b60405161020c9392919061115f565b60405180910390f35b6000602052816000526040600020818154811061023157600080fd5b90600052602060002090600302016000915091505080600001805461025590611477565b80601f016020809104026020016040519081016040528092919081815260200182805461028190611477565b80156102ce5780601f106102a3576101008083540402835291602001916102ce565b820191906000526020600020905b8154815290600101906020018083116102b157829003601f168201915b5050505050908060010180546102e390611477565b80601f016020809104026020016040519081016040528092919081815260200182805461030f90611477565b801561035c5780601f106103315761010080835404028352916020019161035c565b820191906000526020600020905b81548152906001019060200180831161033f57829003601f168201915b5050505050908060020154905083565b60008073ffffffffffffffffffffffffffffffffffffffff168373ffffffffffffffffffffffffffffffffffffffff1614156103a757600080fd5b60008260ff16101580156103bf575060ff8260ff1611155b6103c857600080fd5b60008060003373ffffffffffffffffffffffffffffffffffffffff1673ffffffffffffffffffffffffffffffffffffffff168152602001908152602001600020805490501161041657600080fd5b60008060003373ffffffffffffffffffffffffffffffffffffffff1673ffffffffffffffffffffffffffffffffffffffff1681526020019081526020016000208360ff168154811061046b5761046a6114a9565b5b906000526020600020906003020160405180606001604052908160008201805461049490611477565b80601f01602080910402602001604051908101604052809291908181526020018280546104c090611477565b801561050d5780601f106104e25761010080835404028352916020019161050d565b820191906000526020600020905b8154815290600101906020018083116104f057829003601f168201915b5050505050815260200160018201805461052690611477565b80601f016020809104026020016040519081016040528092919081815260200182805461055290611477565b801561059f5780601f106105745761010080835404028352916020019161059f565b820191906000526020600020905b81548152906001019060200180831161058257829003601f168201915b505050505081526020016002820154815250509050600160008573ffffffffffffffffffffffffffffffffffffffff1673ffffffffffffffffffffffffffffffffffffffff1681526020019081526020016000208190806001815401808255809150506001900390600052602060002090600302016000909190919091506000820151816000019080519060200190610639929190610f2c565b506020820151816001019080519060200190610656929190610f2c565b506040820151816002015550508373ffffffffffffffffffffffffffffffffffffffff163373ffffffffffffffffffffffffffffffffffffffff167fb4817c25354aac8a4e21091a20c055f1661e75c8c489386c5c5893f9a68fb9358360000151846020015185604001516040516106d09392919061115f565b60405180910390a3600191505092915050565b60608060008073ffffffffffffffffffffffffffffffffffffffff168573ffffffffffffffffffffffffffffffffffffffff16141561072157600080fd5b60008460ff1610158015610739575060ff8460ff1611155b61074257600080fd5b60008060008773ffffffffffffffffffffffffffffffffffffffff1673ffffffffffffffffffffffffffffffffffffffff168152602001908152602001600020805490501161079057600080fd5b60008060008773ffffffffffffffffffffffffffffffffffffffff1673ffffffffffffffffffffffffffffffffffffffff1681526020019081526020016000208560ff16815481106107e5576107e46114a9565b5b906000526020600020906003020190508060000181600101826002015482805461080e90611477565b80601f016020809104026020016040519081016040528092919081815260200182805461083a90611477565b80156108875780601f1061085c57610100808354040283529160200191610887565b820191906000526020600020905b81548152906001019060200180831161086a57829003601f168201915b5050505050925081805461089a90611477565b80601f01602080910402602001604051908101604052809291908181526020018280546108c690611477565b80156109135780601f106108e857610100808354040283529160200191610913565b820191906000526020600020905b8154815290600101906020018083116108f657829003601f168201915b50505050509150935093509350509250925092565b6000602e83511461093857600080fd5b6000825111801561094c5750610100825111155b61095557600080fd5b6000429050600060405180606001604052808681526020018581526020018381525090506000803373ffffffffffffffffffffffffffffffffffffffff1673ffffffffffffffffffffffffffffffffffffffff16815260200190815260200160002081908060018154018082558091505060019003906000526020600020906003020160009091909190915060008201518160000190805190602001906109fd929190610f2c565b506020820151816001019080519060200190610a1a929190610f2c565b506040820151816002015550503373ffffffffffffffffffffffffffffffffffffffff167fd549dd39c9bd47d110c0469982c5f4ef0aad33a8daf48c3d789ea4b8ca27f8e6868685604051610a719392919061115f565b60405180910390a260019250505092915050565b60008073ffffffffffffffffffffffffffffffffffffffff168273ffffffffffffffffffffffffffffffffffffffff161415610ac057600080fd5b600160008373ffffffffffffffffffffffffffffffffffffffff1673ffffffffffffffffffffffffffffffffffffffff168152602001908152602001600020805490509050919050565b60016020528160005260406000208181548110610b2657600080fd5b906000526020600020906003020160009150915050806000018054610b4a90611477565b80601f0160208091040260200160405190810160405280929190818152602001828054610b7690611477565b8015610bc35780601f10610b9857610100808354040283529160200191610bc3565b820191906000526020600020905b815481529060010190602001808311610ba657829003601f168201915b505050505090806001018054610bd890611477565b80601f0160208091040260200160405190810160405280929190818152602001828054610c0490611477565b8015610c515780601f10610c2657610100808354040283529160200191610c51565b820191906000526020600020905b815481529060010190602001808311610c3457829003601f168201915b5050505050908060020154905083565b60008073ffffffffffffffffffffffffffffffffffffffff168273ffffffffffffffffffffffffffffffffffffffff161415610c9c57600080fd5b6000808373ffffffffffffffffffffffffffffffffffffffff1673ffffffffffffffffffffffffffffffffffffffff168152602001908152602001600020805490509050919050565b60608060008073ffffffffffffffffffffffffffffffffffffffff168573ffffffffffffffffffffffffffffffffffffffff161415610d2357600080fd5b60008460ff1610158015610d3b575060ff8460ff1611155b610d4457600080fd5b6000600160008773ffffffffffffffffffffffffffffffffffffffff1673ffffffffffffffffffffffffffffffffffffffff1681526020019081526020016000208054905011610d9357600080fd5b6000600160008773ffffffffffffffffffffffffffffffffffffffff1673ffffffffffffffffffffffffffffffffffffffff1681526020019081526020016000208560ff1681548110610de957610de86114a9565b5b9060005260206000209060030201905080600001816001018260020154828054610e1290611477565b80601f0160208091040260200160405190810160405280929190818152602001828054610e3e90611477565b8015610e8b5780601f10610e6057610100808354040283529160200191610e8b565b820191906000526020600020905b815481529060010190602001808311610e6e57829003601f168201915b50505050509250818054610e9e90611477565b80601f0160208091040260200160405190810160405280929190818152602001828054610eca90611477565b8015610f175780601f10610eec57610100808354040283529160200191610f17565b820191906000526020600020905b815481529060010190602001808311610efa57829003601f168201915b50505050509150935093509350509250925092565b828054610f3890611477565b90600052602060002090601f016020900481019282610f5a5760008555610fa1565b82601f10610f7357805160ff1916838001178555610fa1565b82800160010185558215610fa1579182015b82811115610fa0578251825591602001919060010190610f85565b5b509050610fae9190610fb2565b5090565b5b80821115610fcb576000816000905550600101610fb3565b5090565b6000604051905090565b600080fd5b600080fd5b600073ffffffffffffffffffffffffffffffffffffffff82169050919050565b600061100e82610fe3565b9050919050565b61101e81611003565b811461102957600080fd5b50565b60008135905061103b81611015565b92915050565b6000819050919050565b61105481611041565b811461105f57600080fd5b50565b6000813590506110718161104b565b92915050565b6000806040838503121561108e5761108d610fd9565b5b600061109c8582860161102c565b92505060206110ad85828601611062565b9150509250929050565b600081519050919050565b600082825260208201905092915050565b60005b838110156110f15780820151818401526020810190506110d6565b83811115611100576000848401525b50505050565b6000601f19601f8301169050919050565b6000611122826110b7565b61112c81856110c2565b935061113c8185602086016110d3565b61114581611106565b840191505092915050565b61115981611041565b82525050565b600060608201905081810360008301526111798186611117565b9050818103602083015261118d8185611117565b905061119c6040830184611150565b949350505050565b600060ff82169050919050565b6111ba816111a4565b81146111c557600080fd5b50565b6000813590506111d7816111b1565b92915050565b600080604083850312156111f4576111f3610fd9565b5b60006112028582860161102c565b9250506020611213858286016111c8565b9150509250929050565b60008115159050919050565b6112328161121d565b82525050565b600060208201905061124d6000830184611229565b92915050565b600080fd5b600080fd5b7f4e487b7100000000000000000000000000000000000000000000000000000000600052604160045260246000fd5b61129582611106565b810181811067ffffffffffffffff821117156112b4576112b361125d565b5b80604052505050565b60006112c7610fcf565b90506112d3828261128c565b919050565b600067ffffffffffffffff8211156112f3576112f261125d565b5b6112fc82611106565b9050602081019050919050565b82818337600083830152505050565b600061132b611326846112d8565b6112bd565b90508281526020810184848401111561134757611346611258565b5b611352848285611309565b509392505050565b600082601f83011261136f5761136e611253565b5b813561137f848260208601611318565b91505092915050565b6000806040838503121561139f5761139e610fd9565b5b600083013567ffffffffffffffff8111156113bd576113bc610fde565b5b6113c98582860161135a565b925050602083013567ffffffffffffffff8111156113ea576113e9610fde565b5b6113f68582860161135a565b9150509250929050565b60006020828403121561141657611415610fd9565b5b60006114248482850161102c565b91505092915050565b60006020820190506114426000830184611150565b92915050565b7f4e487b7100000000000000000000000000000000000000000000000000000000600052602260045260246000fd5b6000600282049050600182168061148f57607f821691505b602082108114156114a3576114a2611448565b5b50919050565b7f4e487b7100000000000000000000000000000000000000000000000000000000600052603260045260246000fdfea26469706673582212207e36d29e8f6afd92fda7d99a5b80021a0fb6849b664ae24b9edbf89dcf714a9164736f6c634300080b0033",
  "immutableReferences": {},
  "source": "pragma solidity ^0.8.0;\r\n\r\ncontract FileContract {\r\n    struct File {\r\n        string ipfsHash; // IPFS hash\r\n        string name; // file name\r\n        uint256 uploadedOn; // Uploaded timestamp\r\n    }\r\n\r\n    // Maps owner to their files\r\n    mapping(address => File[]) public ownerToFiles;\r\n\r\n    // Maps owner to their shared files\r\n    mapping(address => File[]) public sharedToFiles;\r\n\r\n    event LogFileUploaded(\r\n        address indexed _owner,\r\n        string _ipfsHash,\r\n        string _name,\r\n        uint256 _uploadedOn\r\n    );\r\n\r\n    event LogFileShared(\r\n        address indexed _owner,\r\n        address indexed _receiver,\r\n        string _ipfsHash,\r\n        string _name,\r\n        uint256 _uploadedOn\r\n    );\r\n\r\n\r\n    function uploadFile(\r\n        string memory _ipfsHash,\r\n        string memory _name\r\n    ) public returns (bool _success) {\r\n        require(bytes(_ipfsHash).length == 46);\r\n        require(bytes(_name).length > 0 && bytes(_name).length <= 256);\r\n\r\n        uint256 uploadedOn = block.timestamp;\r\n        File memory file = File(_ipfsHash, _name, uploadedOn);\r\n\r\n        ownerToFiles[msg.sender].push(file);\r\n\r\n        emit LogFileUploaded(\r\n            msg.sender,\r\n            _ipfsHash,\r\n            _name,\r\n            uploadedOn\r\n        );\r\n\r\n        _success = true;\r\n    }\r\n\r\n    function getFileCount(address _owner)\r\n        public\r\n        view\r\n        returns (uint256)\r\n    {\r\n        require(_owner != address(0x0));\r\n        return ownerToFiles[_owner].length;\r\n    }\r\n\r\n    function getFile(address _owner, uint8 _index)\r\n        public\r\n        view\r\n        returns (\r\n            string memory _ipfsHash,\r\n            string memory _name,\r\n            uint256 _uploadedOn\r\n        )\r\n    {\r\n        require(_owner != address(0x0));\r\n        require(_index >= 0 && _index <= 2**8 - 1);\r\n        require(ownerToFiles[_owner].length > 0);\r\n\r\n        File storage file = ownerToFiles[_owner][_index];\r\n\r\n        return (file.ipfsHash, file.name, file.uploadedOn);\r\n    }\r\n\r\n    function shareFile(\r\n        address _receiver, \r\n        uint8 _index\r\n    ) public returns (bool _success) {\r\n\r\n        require(_receiver != address(0x0));\r\n        require(_index >= 0 && _index <= 2**8 - 1);\r\n        require(ownerToFiles[msg.sender].length > 0);\r\n\r\n        File memory file = ownerToFiles[msg.sender][_index];\r\n\r\n        sharedToFiles[_receiver].push(file);\r\n\r\n        emit LogFileShared(\r\n            msg.sender,\r\n            _receiver,\r\n            file.ipfsHash,\r\n            file.name,\r\n            file.uploadedOn\r\n        );\r\n\r\n        _success = true;\r\n    }\r\n\r\n    function getSharedFileCount(address _receiver)\r\n        public\r\n        view\r\n        returns (uint256)\r\n    {\r\n        require(_receiver != address(0x0));\r\n        return sharedToFiles[_receiver].length;\r\n    }\r\n\r\n    function getSharedFile(address _receiver, uint8 _index)\r\n        public\r\n        view\r\n        returns (\r\n            string memory _ipfsHash,\r\n            string memory _name,\r\n            uint256 _uploadedOn\r\n        )\r\n    {\r\n        require(_receiver != address(0x0));\r\n        require(_index >= 0 && _index <= 2**8 - 1);\r\n        require(sharedToFiles[_receiver].length > 0);\r\n\r\n        File storage file = sharedToFiles[_receiver][_index];\r\n\r\n        return (file.ipfsHash, file.name, file.uploadedOn);\r\n    }\r\n}\r\n",
  "sourcePath": "C:\\Users\\nikla\\Documents\\school\\www\\react-dapp-boilerplate\\contracts\\FileContract.sol",
  "compiler": {
    "name": "solc",
    "version": "0.8.11+commit.d7f03943.Emscripten.clang"
  },
  "schemaVersion": "3.4.3",
  "updatedAt": "2021-12-30T08:57:14.542Z",
  "networkType": "ethereum",
  "devdoc": {
    "kind": "dev",
    "methods": {},
    "version": 1
  },
  "userdoc": {
    "kind": "user",
    "methods": {},
    "version": 1
  }
}